:100000000C94D4010C94F3010C94F3010C94F301BF
:100010000C94F3010C94F3010C94F3010C94F30190
:100020000C94F3010C94F3010C94F3010C94F30180
:100030000C94F3010C94DE080C94F3010C945B0710
:100040000C9490160C94C8160C9431080C943C082F
:100050000C9447080C94F3010C94F3010C94F301F5
:100060000C947C070C94F3010C94F3010C94F301B1
:100070000C94F3010C94F3010C94F3010C94F30130
:100080000C94F3010C94F3010C94F3010C94F30120
:100090000C94F3010C94F3010C94F3010C94F30110
:1000A0000C94F3010C94F3010C94F3010C94F30100
:1000B0000C94F3010C94F3010C94F3010C94F301F0
:1000C0000C94F3010C94F3010C94F301920C970C33
:1000D0008D0C920C970C8D0C9C0C920C970C8D0C2B
:1000E0009C0C920C970C8D0C920C970C8D0CFD0CAB
:1000F000040DF60CFD0C040DF60C0B0DFD0C040D9F
:10010000F60C0B0DFD0C040DF60CFD0C040DF60C9D
:10011000500D550D4B0D500D550D4B0D5A0D500DED
:10012000550D4B0D5A0D500D550D4B0D500D550DD8
:100130004B0DF210FD10E710F210FD10E710081142
:10014000F210FD10E7100811F210FD10E710F21088
:10015000FD10E71052115D11471152115D11471149
:10016000681152115D114711681152115D1147114B
:1001700052115D114711A727DA2732286F288528E9
:10018000D8286129882C922CA72C9827572D6B2DC5
:10019000E12E872D8E2DD82DE62E072F282F9F2775
:1001A000452F00002110422063308440A550C660D6
:1001B000E770088129914AA16BB18CC1ADD1CEE124
:1001C000EFF13112100273325222B5529442F7729B
:1001D000D662399318837BB35AA3BDD39CC3FFF374
:1001E000DEE36224433420040114E664C774A444AB
:1001F00085546AA54BB528850995EEE5CFF5ACC5C4
:100200008DD55336722611163006D776F66695567A
:10021000B4465BB77AA719973887DFF7FEE79DD713
:10022000BCC7C448E5588668A7784008611802280A
:100230002338CCC9EDD98EE9AFF9488969990AA963
:100240002BB9F55AD44AB77A966A711A500A333ADA
:10025000122AFDDBDCCBBFFB9EEB799B588B3BBBB3
:100260001AABA66C877CE44CC55C222C033C600C6A
:10027000411CAEED8FFDECCDCDDD2AAD0BBD688D03
:10028000499D977EB66ED55EF44E133E322E511EBA
:10029000700E9FFFBEEFDDDFFCCF1BBF3AAF599F53
:1002A000788F8891A981CAB1EBA10CD12DC14EF1F3
:1002B0006FE18010A100C230E32004502540467059
:1002C0006760B9839893FBA3DAB33DC31CD37FE384
:1002D0005EF3B1029012F322D232354214527762A9
:1002E0005672EAB5CBA5A89589856EF54FE52CD554
:1002F0000DC5E234C324A0148104667447642454F9
:100300000544DBA7FAB79987B8975FE77EF71DC763
:100310003CD7D326F2369106B01657667676154648
:1003200034564CD96DC90EF92FE9C899E9898AB9B3
:10033000ABA94458654806782768C018E108823898
:10034000A3287DCB5CDB3FEB1EFBF98BD89BBBABC3
:100350009ABB754A545A376A167AF10AD01AB32AE8
:10036000923A2EFD0FED6CDD4DCDAABD8BADE89D13
:10037000C98D267C076C645C454CA23C832CE01C38
:10038000C10C1FEF3EFF5DCF7CDF9BAFBABFD98FA3
:10039000F89F176E367E554E745E932EB23ED10E88
:1003A000F01E00020E060C0411241FBECFEFD1E296
:1003B000DEBFCDBF12E0A0E0B2E0E0E4F7E600E08F
:1003C0000BBF02C007900D92A232B107D9F716E019
:1003D000A2E2B2E001C01D92A631B107E1F70E948E
:1003E000752F0C949F330C9400008FB7F8949927C5
:1003F00008958FBF08956D3118F080E090E0089562
:100400000C960895CF92DF92EF92FF920F931F9375
:10041000CF93DF936C018B017A01E901232B19F152
:10042000FB0183E0F695E7958A95E1F7EE0DFF1D58
:10043000808199279B012770307002C09595879520
:100440002A95E2F780FF06C0F6017183608380E0A1
:1004500090E00BC0CB010196BE010E94FC32BC01B2
:1004600080179107E9F681E090E0DF91CF911F912D
:100470000F91FF90EF90DF90CF900895282F9FB7B6
:10048000F894E82FFF27EC56FD4F80818F3F81F4D1
:10049000E0911006E21771F40BC02093BD0504C073
:1004A000FF27EC56FD4F20832093100620E007C065
:1004B00025E005C08091BD058F3F91F7EECF892FD4
:1004C00099278FBF822F99270895EF920F931F933B
:1004D000AE2D99E0899FF0011124E95FFA4F408326
:1004E0005183628373830483158326833783A170CA
:1004F00080858E7F8A2B8260808781E00E943E0209
:100500001F910F91EF9008957FB7F8946091B2001A
:1005100020918F023091900240919102509192026D
:10052000B99B11C08091B3009091B200280F311D8A
:10053000411D511D2F5F3F4F4F4F5F4F290F311D01
:10054000411D511D04C0260F311D411D511D872F16
:1005500099278FBFCA01B90108952F923F924F92F8
:100560005F926F927F928F929F92AF92BF92CF9243
:10057000DF92EF92FF920F931F93CF93DF93CDB74C
:10058000DEB729970FB6F894DEBF0FBECDBF6FB7A9
:100590006983F8942090740330907503409076033B
:1005A000509077036624772488243EE4A32E23E822
:1005B000B22ECC24DD24EE24FF2400E010E0222D16
:1005C000332D442D552D662D772D882D90E00E94DA
:1005D0007B312A833B834C835D836E837F83888753
:1005E0009987822E932EA42EB52E2401350100E288
:1005F0000E947932A22EB32EC42ED52EA3019201D1
:1006000056954795379527952A0D3B1D4C1D5D1D29
:1006100057FF05C05F772F5F3F4F4F4F5F4F2093CE
:100620007403309375034093760350937703E98105
:100630008E2F99278FBFCA01B90129960FB6F8945A
:10064000DEBF0FBECDBFDF91CF911F910F91FF9005
:10065000EF90DF90CF90BF90AF909F908F907F9062
:100660006F905F904F903F902F9008950B96089554
:10067000CF93DF93FC01DC0111962181662351F0B9
:10068000ED0189819927982F882733272062822BB3
:10069000932B09C0ED0189819927982F882733274B
:1006A000822B932B8F7D8183892F99278983DF91DB
:1006B000CF9108951F93982F1FB7F894809123022C
:1006C000823099F580910B02891779F580910902A2
:1006D00020E030E08F3F11F421E030E0232BF1F4F3
:1006E0009FEF90930B028F3F19F42FEF30E00DC076
:1006F000282F3327F901E95BFC4F808180930902A1
:100700008F3F11F490930A0290832093430381E07A
:100710008093230282E00E943E0205C08FEF809307
:100720000B021092230221E001C020E0812F9927C3
:100730008FBF90E0213009F491E081E09827892F64
:1007400099271F910895E2EAF1E06927660FF11DEC
:10075000E60FF11DC895982F802D3196C8959025EC
:1007600008951F93CF93DF93142FEB0104C0699179
:100770000E94A30311501123D1F7DF91CF911F9154
:1007800008951F93982F1FB7F89480912C02823000
:1007900099F580912102891779F580911F0220E057
:1007A00030E08F3F11F421E030E0232BF1F49FEF94
:1007B000909321028F3F19F42FEF30E00DC0282FC6
:1007C0003327F901E75BFC4F808180931F028F3F45
:1007D00011F49093200290832093070681E0809388
:1007E0002C0282E10E943E0205C08FEF809321021D
:1007F00010922C0221E001C020E0812F99278FBFA9
:1008000090E0213009F491E081E09827892F992721
:100810001F9108951F93982F8FB7F894182F8091E8
:100820002B028330B1F580911E02891791F58091DA
:100830001C0220E030E08F3F11F421E030E0232B58
:10084000F9F48F3F19F42FEF30E00EC0282F332733
:10085000F901EC53FA4F808180931C028F3F11F411
:1008600080931D028FEF80832093A1058FEF8093EB
:100870001E0281E080932B0281E10E943E0205C0AE
:1008800084E080931E0210922B021FBF80E090E054
:1008900003C01FBF81E090E01F910895E82F9A01E7
:1008A000AB01BB27A52F942F832FBC01E13049F06A
:1008B000E13078F0E23041F0E33049F060E078E098
:1008C00008C060507F4F05C060507E4F02C060502E
:1008D0007D4F88279927982F872F762F662730708E
:1008E00044275527620F731F841F951F089588237F
:1008F00019F08CB5806402C08CB58F7B8CBD0895D7
:10090000882319F08CB5806802C08CB58F778CBDB8
:1009100008950F931F9380E00E9477040FB7F89417
:100920001127229A2398219A8CB580618CBD80E092
:100930000E9480048DB581608DBD8CB5877F8CBD94
:100940008CB58B7F8CBD8CB58E7F8CBD81E00E9479
:1009500077040FBF1F910F9108958FB7F8942091DE
:10096000FB043091FC044091FD045091FE04E091A1
:100970008400F0918500B09B08C02F5F3F4F4F4F20
:100980005F4FE0918400F091850099278FBFC901E6
:10099000772766279F0144275527622B732B842BCB
:1009A000952B0895FC0180A9826080AB08958C96F8
:1009B0000895AC01EFB7F894209184003091850040
:1009C000C901841B950B03968617970720F0B90180
:1009D0006D5F7F4F02C0640F751F6115710511F4C3
:1009E00061E070E06150704070938900609388000E
:1009F00082E086BB80916F00826080936F008E2FB3
:100A000099278FBF08952FB7F89433278093AB02AF
:100A10002FBF85E00E943E020895FC018281218162
:100A20009927982F88273327822B932B85FF1FC068
:100A300087749C7C81549848D1F4878146812FB774
:100A4000F894332760910602709107022FBF20E0CF
:100A50009927982F88275527842B952B861797073A
:100A600009F021E081E02827822F9927089580E06E
:100A700090E008950F931F93982F1FB7F8948091DB
:100A80002402823099F580910E02891779F58091C0
:100A90000C0220E030E08F3F11F421E030E0232B06
:100AA000F1F49FEF90930E028F3F19F42FEF30E097
:100AB0000DC0282F3327F901E75EFB4F808180931B
:100AC0000C028F3F11F490930D02908320931C042D
:100AD00081E08093240289E00E943E0205C08FEFEE
:100AE00080930E021092240201E001C000E0812FE9
:100AF00099278FBF1FB7F89480912402882311F49F
:100B00000E947704812F99278FBF90E0013009F46C
:100B100091E081E09827892F99271F910F910895DF
:100B2000EF92FF920F931F937C018FB7F894992750
:100B300000914003109141030F5E1E4F109341033B
:100B400000934003015111408FBF87E00E943E0295
:100B5000C801B7010E94FC328A5D9E4F1F910F9120
:100B6000FF90EF90089510923202823031F083307E
:100B700041F0813049F480E101C08EE00E94C10360
:100B800008958FE00E94C1030895813049F08130BB
:100B900078F0823041F0833049F060E070E008C0C6
:100BA00060507E4F05C060507D4F02C060507F4F47
:100BB000CB010895982F4FB7F89455272BB1277D77
:100BC0002BB980E097FD5B9A5D9A4A9980682BB9B2
:100BD00096FD5B9A5D9A4A9980642BB995FD5B9A64
:100BE0005D9A4A9980622BB994FD5B9A5D9A4A9905
:100BF00080612BB993FD5B9A5D9A4A9988602BB905
:100C000092FD5B9A5D9A4A9984602BB991FD5B9A3B
:100C10005D9A4A9982602BB990FD5B9A5D9A4A99D8
:100C200081604FBF992708954FB7F8945527FC016D
:100C300053E0F695E7955A95E1F7EA5BFA4F87702E
:100C4000907021E030E002C0220F331F8A95E2F756
:100C50008081822B80834FBF0895AF92BF92CF9245
:100C6000DF92EF92FF920F931F93282F33278BE091
:100C700090E0289FF001299FF00D389FF00D11247E
:100C8000ED5CFD4F82819381A481B5810097A10520
:100C9000B10569F080819181880F991F91838083CC
:100CA0008150944020F080E094E0918380838BE039
:100CB00090E0289F5001299FB00C389FB00C112460
:100CC00083E392E0A80EB91EF50186819781A08585
:100CD000B18582839383A483B583C080D180EE24C1
:100CE000FF24B9E0CC0CDD1CEE1CFF1CBA95D1F73B
:100CF0000E94AD02DC01CB01F50100811181B80138
:100D0000762F6627770F0E94FC32AA27BB278C0D0F
:100D10009D1DAE1DBF1D222733276AE0000F111F46
:100D2000221F331F6A95D1F7081B190B2A0B3B0BA7
:100D3000068317832087318722813381448155813F
:100D4000280F391F4A1F5B1F228333834483558337
:100D50001F910F91FF90EF90DF90CF90BF90AF90D9
:100D60000895FC0182A593A50895DF92EF92FF926A
:100D70000F931F938FB7F894282F3327D22E90917B
:100D8000B3008091B20047B3981711F041FF02C041
:100D90002FBF71C0809162038823E1F10E94840219
:100DA000E0908402F0908502009186021091870203
:100DB0002091C9053091CA054091CB055091CC05D1
:100DC0006E197F09800B910B6217730784079507D3
:100DD00020F01092620371E01EC02E0D3F1D401FD7
:100DE000511F80918F0290919002A0919102B09139
:100DF0009202281B390B4A0B5B0B273E310541053C
:100E0000510540F4822F223010F070E005C070E0F0
:100E100082E002C070E086EE682F61508091B600DB
:100E200083FDFCCF8091B200681709F46F5F2091B9
:100E30008F02309190024091910250919202DA011A
:100E4000C9010196A11DB11D860F911DA11DB11DE6
:100E500082179307A407B50710F4622F609580915D
:100E6000B60083FDFCCF6093B300DFBE772319F09B
:100E700080E00E943E021F910F91FF90EF90DF9063
:100E80000895AFB7F894BB27E1E0E0936203609365
:100E90008402709385028093860290938702209348
:100EA000C9053093CA054093CB055093CC05AFBF1D
:100EB0000E94B50608951F920F920FB60F9211244B
:100EC0008F938091B0008093B0008091B60081FD37
:100ED000FCCF8F910F900FBE0F901F9018951F930E
:100EE000182F81E00E9477041EBD0DB407FEFDCFD0
:100EF0008EB599271F9108951F920F920FB60F92EA
:100F000011248F929F92AF92BF92CF92DF92EF9275
:100F1000FF920F931F932F933F934F935F936F9382
:100F20007F938F939F93AF93BF93CF93DF93EF9371
:100F3000FF932EB5E0914105F0914205309739F0CD
:100F40008091BA049091BB04E80FF91F208380912F
:100F5000BA049091BB0401969093BB048093BA04A9
:100F600080E00E948004C091BA04D091BB048091BB
:100F7000400290914102C817D90708F044C000917F
:100F800005061091060680904105909042052AE0E2
:100F9000A22EB12CAC0EBD1E8A159B0508F45C0177
:100FA0006401CC0EDD1E7801EC0EFD1E15C001158E
:100FB000110519F0F701808101C080E00E946F07E0
:100FC0008114910411F0F601808321960894C11CCC
:100FD000D11C0894E11CF11CC5010197C817D90761
:100FE00030F381E00E9480040115110531F00C0FEF
:100FF0001D1FF80180818EBD01C01EBCD093BB04B3
:10100000C093BA0411C0109242051092410510928B
:1010100006061092050610924102109240021092AC
:10102000BB041092BA048EB5FF91EF91DF91CF917E
:10103000BF91AF919F918F917F916F915F914F91F0
:101040003F912F911F910F91FF90EF90DF90CF90E4
:10105000BF90AF909F908F900F900FBE0F901F90FA
:10106000189578941F920F920FB60F9211240F903B
:101070000FBE0F901F90189578941F920F920FB685
:101080000F9211240F900FBE0F901F901895789417
:101090001F920F920FB60F9211242F933F938F93AD
:1010A0009F93AF93BF932FB7F89433278091FB049E
:1010B0009091FC04A091FD04B091FE040196A11D45
:1010C000B11D8093FB049093FC04A093FD04B093A6
:1010D000FE042FBFBF91AF919F918F913F912F91B0
:1010E0000F900FBE0F901F901895EF92FF920F93E5
:1010F0001F93CF93DF93EA017B010AC08C010F5F3E
:101100001F4F0E948933F70181937F012197C80106
:101110002097A1F780E090E0DF91CF911F910F9190
:10112000FF90EF900895CF92DF92EF92FF920F938E
:101130001F93CF93DF93CDB7DEB728970FB6F89400
:10114000DEBF0FBECDBF7B018C018FB7F89448E0A6
:1011500050E06E010894C11CD11CB60180EF9FE0E5
:101160000E947508EB82FC820D831E838FEF8F83B4
:10117000188680910002909101029A8389837601FA
:1011800080EF9FE0F70161917F018C010F5F1F4F9E
:101190000E949133FFE0083F1F0711F0C801F2CF12
:1011A000F999FECF88E190E029E00FB6F894A89570
:1011B000809360000FBE20936000FFCF1F920F92BC
:1011C0000FB60F9211242F933F934F935F936F931A
:1011D0007F938F939F93AF93BF93EF93FF938091F0
:1011E000B0008093B0008091B60081FDFCCF80916B
:1011F000B30099270196AA27BB2720918F0230912F
:1012000090024091910250919202280F391F4A1F7B
:101210005B1F20938F023093900240939102509372
:10122000920278940E94B506FF91EF91BF91AF9121
:101230009F918F917F916F915F914F913F912F91EE
:101240000F900FBE0F901F90189521E02093A005DE
:10125000209318042091840030918500BC01C901BD
:101260000E94D9040895CF93DF93982F8FB7F894F5
:10127000C82FDD272C2F80912C02882361F481E078
:1012800080932C029093070682E10E943E02CFBF1A
:1012900080E090E021C0E92FFF27E75BFC4F8081D1
:1012A0008F3F89F4E0912002E91789F40CC09093F4
:1012B0001F0204C0FF27E75BFC4F9083909320023E
:1012C00080E090E002C085E090E02FBF05C08091F3
:1012D0001F028F3F79F7EBCFDF91CF9108958FB742
:1012E000F894282F3327922F80912102813149F4DD
:1012F00080912C02823029F42FBF85E10E943E02AA
:1013000008959FBF81E10E94330908951F93182F0C
:10131000809132028823E1F4623041F0633041F081
:10132000613011F081E007C080E103C08EE001C0B0
:101330008FE00E94330990E0882309F491E09093B4
:101340003202992329F01093AD0580E090E002C0AD
:1013500081E090E01F9108950F931F93CF93DF9347
:10136000182F0FB7F89480912402882311F40E945B
:101370008904802F99278FBF8FB7F894C82FDD2756
:101380002C2F80912402882361F481E08093240231
:1013900010931C0489E00E943E02CFBF80E090E0E1
:1013A00021C0E12FFF27E75EFB4F80818F3F89F44B
:1013B000E0910D02E11789F40CC010930C0204C0F7
:1013C000FF27E75EFB4F108310930D0280E090E053
:1013D00002C085E090E02FBF05C080910C028F3FD6
:1013E00079F7EBCFDF91CF911F910F9108958FB7D0
:1013F000F894282F3327922F80910E02882331F4FE
:1014000080912402823011F42FBF13C09FBF8FB789
:10141000F894282F332780912402882369F482E0EE
:101420008093240210920E022FBF0E948904209AFA
:10143000289A81E090E008952FBF80E00E94AC09D7
:1014400080E090E008954F925F926F927F928F922A
:101450009F92AF92BF92CF92DF92EF92FF920F9343
:101460001F93CF93DF932C0180913F02882309F0D3
:101470004DC180910806853009F048C10E94F709E6
:10148000882309F443C18091A205882309F03EC155
:10149000E201E096F20180A982FD02C090E003C063
:1014A000F20192A99F7080915304981781F0909354
:1014B0005304289885EC8EBD0DB407FEFDCF8EB584
:1014C00090689EBD0DB407FEFDCF8EB5289A4201EF
:1014D0000894811C911CF4018181F201218140E07A
:1014E0009927982F88273327822B932B87749C7CEE
:1014F0008154984809F441E0442301F1289886E892
:101500008EBD0DB407FEFDCF8EB51EBC0DB407FE1B
:10151000FDCF8EB5289A99278F719070209178030E
:1015200040914803240F312D311D43E03595279517
:101530004A95E1F7281739070CF4E8C0289882EC9F
:101540008EBD0DB407FEFDCF8EB589E08EBD0DB406
:1015500007FEFDCF8EB5289A0E94AD047B018C0159
:10156000888184FD03C0C0E0D0E006C0F201808124
:101570008550E201C80FD11D289881E88EBD0DB4B9
:1015800007FEFDCF8EB51EBC0DB407FEFDCF8EB598
:10159000289A8F71893021F087E080930806B6C0C1
:1015A0008FB7F89499272F9A209184003091850065
:1015B0008FBF2F98289880E68EBDF20190810DB4E0
:1015C00007FEFDCF8EB59EBD792F7250773010F497
:1015D000672F01C067E0F401962F41910DB407FE1B
:1015E000FDCF8EB54EBD9150C1F76150F401E60FAD
:1015F000F11D6F5F31962E193F092E553F4F39016E
:10160000882477FC8094982C6E0C7F1C801E911E81
:10161000209719F4972F961B1FC088819981AA8162
:10162000BB8186199709A809B9098B83292F3A2FFD
:101630004B2F55272A839D014427552729838B2F1C
:101640009927AA27BB278883E5CF20810DB407FE01
:10165000FDCF31968EB52EBD9150B8F70DB407FE73
:10166000FDCF8EB5289A289882EC8EBD0DB407FE6A
:10167000FDCF8EB586E08EBD0DB407FEFDCF8EB5D5
:10168000289A209779F18881E9802A81AB803327D5
:1016900044275527542F432F322F22279927AA2733
:1016A000BB27B82FAA2799278827FF2400271127AF
:1016B0008701FF24EE248E299F29A02BB12BBB2468
:1016C000CC24DD248A299B29AC29BD29282B392B40
:1016D0004A2B5B2B260D371D481D591D2883398346
:1016E0004A835B83C2010E94D204C2010E94D704D4
:1016F000FC01608271828282938286E08093080678
:1017000084E080933F0280E090E002C085E090E0BA
:10171000DF91CF911F910F91FF90EF90DF90CF90CD
:10172000BF90AF909F908F907F906F905F904F9001
:101730000895CF93DF93982F8FB7F894282F3327EE
:10174000422F80912B02882331F581E080932B0278
:101750009093A1052FBF8FB7F894C82FDD279C2F3A
:1017600080911E02843099F480912B02813021F403
:1017700081E10E943E0209C0823049F48091A105B6
:1017800080931E0283E080932B02CFBF01C09FBFD6
:1017900080E090E021C0E92FFF27EC53FA4F8081D1
:1017A0008F3F89F4E0911D02E91789F40CC09093F2
:1017B0001C0204C0FF27EC53FA4F908390931D0244
:1017C00080E090E002C085E090E04FBF05C08091CE
:1017D0001C028F3F79F7EBCFDF91CF910895CF9225
:1017E000DF92EF92FF920F931F93CF93DF93782FA7
:1017F000C62FDD278BE090E0C89FF001C99FF00D58
:10180000D89FF00D1124E357FB4F8081882319F0F6
:1018100085E090E048C0643018F480E091E002C0B8
:1018200080E090E0AA27BB27BA2FA92F982F8827FE
:1018300082179307A407B507A0F1821B930BA40B93
:10184000B50B8C159D05AE05BF0558F18BE090E0FA
:10185000C89FF001C99FF00DD89FF00D1124E357E8
:10186000FB4F70832383348345835683C782D0869E
:10187000E186F28612830183613069F0613028F0DD
:10188000623059F0633059F003C080E00E94990B38
:1018900080E090E008C081E0F9CF82E0F7CF83E0FC
:1018A000F5CF86E090E0DF91CF911F910F91FF90EF
:1018B000EF90DF90CF900895BF92CF92DF92EF929A
:1018C000FF920F931F93B82E670178018091290230
:1018D000882319F085E090E034C0EB2DFF27E1313B
:1018E000F105B8F4EA59FF4FEE0FFF1F0590F49190
:1018F000E02D099484E00E94EF0B9927282F88237C
:1019000049F481E080932902B092090680E090E0DA
:1019100018C021E0822F992714C089019A01AB01D8
:1019200063E0E8CF89019A01AB0161E0E3CF89016F
:101930009A01AB0162E0DECF89019A01AB0160E060
:10194000D9CF1F910F91FF90EF90DF90CF90BF9074
:101950000895EF92FF920F931F93813051F08130E1
:1019600030F0823041F0833041F081E009C086E000
:1019700005C089E003C087E001C088E00E945C0CDC
:1019800099271F910F91FF90EF900895BF92CF92EA
:10199000DF92EF92FF920F931F93B82ED7018091A1
:1019A0002902882319F085E090E03CC0EB2DFF2749
:1019B000E131F105B8F4E958FF4FEE0FFF1F059034
:1019C000F491E02D099485E00E94EF0B9927282FD0
:1019D000882349F481E080932902B092090680E0CF
:1019E00090E020C021E0822F99271CC06801790176
:1019F0008D019A01AB0163E0E6CF680179018D01A9
:101A00009A01AB0161E0DFCF680179018D019A0194
:101A1000AB0162E0D8CF680179018D019A01AB0179
:101A200060E0D1CF1F910F91FF90EF90DF90CF90AA
:101A3000BF900895BF92CF92DF92EF92FF920F93E3
:101A40001F93B82E6701780180912902882319F02D
:101A500085E090E034C0EB2DFF27E131F105B8F4CB
:101A6000E857FF4FEE0FFF1F0590F491E02D09940A
:101A700081E00E94EF0B9927282F882349F481E009
:101A800080932902B092090680E090E018C021E01E
:101A9000822F992714C089019A01AB0163E0E8CF36
:101AA00089019A01AB0161E0E3CF89019A01AB01A1
:101AB00062E0DECF89019A01AB0160E0D9CF1F91CE
:101AC0000F91FF90EF90DF90CF90BF900895AF926D
:101AD000BF92CF92DF92EF92FF920F931F9380916C
:101AE000610399272CE130E0829FA001839F500D74
:101AF000929F500D1124FA01EF52FA4F8081A82EC7
:101B0000BB24CC24DD241AE0AA0CBB1CCC1CDD1C9D
:101B10001A95D1F7FA01EE52FA4F808126E1829FA1
:101B2000C0011124AA27BB27A80EB91ECA1EDB1E9E
:101B30009A012D523A4F80912702823079F08330FA
:101B4000B1F0813011F081E01CC0B6E1EB2EF12C38
:101B5000012D112DB601A50185E011C0A6E1EA2EE7
:101B6000F12C012D112DB601A50183E008C0F6E18D
:101B7000EF2EF12C012D112DB601A50184E00E945C
:101B80001A0D882311F01092AA021F910F91FF9055
:101B9000EF90DF90CF90BF90AF9008959C0180911F
:101BA0003E02882319F085E090E0089530935405B3
:101BB0002093530581E080933E021092520485E009
:101BC0000E943E0280E090E00895CF93DF93EC0105
:101BD0008FE38A87809179038F5F809379038B836A
:101BE00080918B0290918C02892B11F025E017C017
:101BF00088A599A5892B21F061E0CE010E943803C8
:101C0000CE010E94CE0D9927282F882341F4D0932E
:101C10008C02C0938B0210925E0310925D03822FA0
:101C20009927DF91CF910895FF920F931F93CF9340
:101C3000DF93F82E8B01EA01422F2D3118F086E058
:101C400090E08CC0FE0131968181298150E0992776
:101C5000982F88273327822B932B87749C7C815461
:101C6000984809F451E0552321F481E4898388E8F8
:101C70008183435F48832FB7F8943327809106020E
:101C8000909107022FBF8887892F992789872FB7BF
:101C9000F8943327809108022FBF99278C831D82E7
:101CA000CE010E943603FC01F0820E83812F99271A
:101CB0008F838FB7F894282F3327809123028823AE
:101CC00071F482E08093230210920B022FBFCE01A9
:101CD0000E94E50D9927182F882399F00FC02FBF78
:101CE000D0934503C09344038FB7F894C82FDD27E2
:101CF0002C2F80912302882399F406C080E00E9453
:101D00005A03812F99272AC081E0809323021092E1
:101D1000430382E00E943E02CFBF80E090E01EC0FD
:101D2000809147038F3F89F4E0910A02EE2369F026
:101D300010C01092090204C0FF27E95BFC4F10821B
:101D400010920A0280E090E002C085E090E02FBF90
:101D500005C0809109028F3F79F7EBCFDF91CF91DA
:101D60001F910F91FF900895EF92FF920F931F9391
:101D7000CF93DF9380910F029927019666E070E080
:101D80000E941033682F80930F0200E0462F5527E2
:101D9000FA01EE0FFF1FE151FB4FC081D181209767
:101DA00099F0E62FE695E695E695FF27E853FA4F7A
:101DB000808199279A012770307002C09595879588
:101DC0002A95E2F780FF0DC0CA01019666E070E037
:101DD0000E941033682F0F5F0630C1F600930F0288
:101DE0001FC060930F026630D8F4E88083EFE80EDE
:101DF000FF240F811127102F00278E819927082B90
:101E0000192BCE010E943603FC012E2DAE01B80124
:101E100080810E94140E882319F08BE00E943E02FC
:101E2000DF91CF911F910F91FF90EF900895EF9266
:101E3000FF920F931F93CF93DF93E82E8B01F42E25
:101E400085E08E1518F481E090E03BC0CE2DDD27B3
:101E5000CC0FDD1FC151DB4F88819981892B19F08F
:101E600085E090E02EC079836883EDE0FE0EFB01F3
:101E7000F082F3EFFF0E80910F02863018F480E0BD
:101E800090E01FC0CB010E943603FC018081F80165
:101E900067817727762F662726813327622B732B5E
:101EA000E0920F022F2DA8010E94140E9927282FCF
:101EB000882329F086E080930F0219821882822FEE
:101EC0009927DF91CF911F910F91FF90EF90089587
:101ED000CF92DF92EF92FF920F931F93CF93DF93F6
:101EE0006C0166E082E492E00E94FB01EC01892B28
:101EF00009F478C081E080935B03C9828D2D992716
:101F0000888380E0C8168EEDD80629F020E030E006
:101F100040E050E008C020912D0230912E02409107
:101F20002F0250913002FE0132962383BB27A52F4A
:101F3000942F832F8283CA01AA27BB278183252F51
:101F40003327442755272A83E280FF2400271127BF
:101F5000102F0F2DFE2CEE24522F4427332722273B
:101F60009927AA27BB27DC0199278827282B392BFB
:101F70004A2B5B2B83819927AA27BB27282B392B38
:101F80004A2B5B2BE22AF32A042B152BE114F104D4
:101F90000105110511F410E012C080E0C8168EEDA5
:101FA000D80621F41AE06EE575E003C010E060E0A9
:101FB00070E0412F5527CE0106960E9479338FEFAE
:101FC000809348028093490282E492E00E943603A3
:101FD000FC0180E680831A5F412F62E472E084E0B6
:101FE0000E94170FDF91CF911F910F91FF90EF90FB
:101FF000DF90CF900895CF92DF92EF92FF920F93F0
:102000001F9380932A026093B005C901880F892F1E
:10201000881F990B91958093B105220F812F9927E5
:10202000282B2093B2050093B305D0924405C092AB
:102030004305F0921B04E0921A044093170480E1D8
:102040000E943E021F910F91FF90EF90DF90CF9082
:102050000895843021F0853051F0833079F48091F7
:102060001002813059F48CE00E943E020895809164
:102070001002813019F48CE00E943E020895CF9244
:10208000DF92EF92FF920F931F9380917D0288233E
:1020900039F085E080932A0280E10E943E0229C047
:1020A00040910405842F9927FC01EE0FFF1FE80FD4
:1020B000F91FDF01A455BD4F2D913C91E255FD4F15
:1020C000808182FF06C0442311F068E807C069E8F8
:1020D00005C0442311F063E801C066E841E0C42E66
:1020E000D12CEE24FF2400E010E040E089E00E94C3
:1020F000FB0F1F910F91FF90EF90DF90CF9008950D
:10210000BF92CF92DF92EF92FF920F931F93B82E60
:1021100080917D02882339F085E080932A0280E156
:102120000E943E021DC08B2D9927FC01EE0FFF1F60
:10213000E80FF91FE455FD4F20813181BB2011F4D8
:1021400061E601C060E671E0C72ED12CEE24FF24C9
:1021500000E010E040E08AE00E94FB0FB092020530
:102160001F910F91FF90EF90DF90CF90BF90089557
:10217000BF92CF92DF92EF92FF920F931F93B82EF0
:1021800080912902882319F085E090E04CC0EB2D66
:10219000FF27E131F105B8F4E756FF4FEE0FFF1FBF
:1021A0000590F491E02D099482E00E94EF0B9927AD
:1021B000282F882349F481E080932902B0920906F0
:1021C00080E090E030C021E0822F99272CC0CC2401
:1021D000DD24760100E010E020E030E040E050E057
:1021E00063E0E2CFCC24DD24760100E010E020E0C3
:1021F00030E040E050E061E0D7CFCC24DD24760130
:1022000000E010E020E030E040E050E062E0CCCFC1
:10221000CC24DD24760100E010E020E030E040E056
:1022200050E060E0C1CF1F910F91FF90EF90DF90E1
:10223000CF90BF900895CF92DF92EF92FF920F93CD
:102240001F93982F80912902882319F085E090E050
:102250004AC0E92FFF27E131F105A8F4E655FF4F09
:10226000EE0FFF1F0590F491E02D099483E00E948A
:10227000EF0B9927282F882339F481E080932902D6
:1022800080E090E030C021E0822F99272CC0CC2440
:10229000DD24760100E010E020E030E040E050E096
:1022A00063E0E4CFCC24DD24760100E010E020E000
:1022B00030E040E050E061E0D9CFCC24DD2476016D
:1022C00000E010E020E030E040E050E062E0CECFFF
:1022D000CC24DD24760100E010E020E030E040E096
:1022E00050E060E0C3CF1F910F91FF90EF90DF901F
:1022F000CF900895AF92BF92CF92DF92EF92FF926C
:102300000F931F93CF93DF938091A205882309F445
:1023100013C10E94F709882309F40EC18FB7F894FE
:102320009927C0911504D09116048FBF1092A20571
:1023300028988FE88EBD0DB407FEFDCF8EB51EBC6C
:102340000DB407FEFDCF8EB5289A982FA82EBB247A
:10235000A0FE0CC080913F02833011F0873031F431
:1023600085E08093080688E080933F02A2FE5FC06C
:1023700080913F02863019F410923F0203C08823F7
:1023800009F055C0943009F041C0289886E88EBD08
:102390000DB407FEFDCF8EB51EBC0DB407FEFDCFFC
:1023A0002EB5289A2F7180914803982F969596956F
:1023B000322F391B830F80934803E0918802F091FC
:1023C000890280A98B7F886080AB22AB0E94AD041C
:1023D0006B017C010091880210918902C8010E9462
:1023E000D204C8010E94D704FC01CC19DD0927974B
:1023F000CE01AA2797FDA095BA2F8C0D9D1DAE1D6D
:10240000BF1D80839183A283B3830EC0E0918802B5
:10241000F091890280A9877F80ABE0918802F091DA
:10242000890280A98D7F80AB85E080933F02A3FE67
:1024300083C080913F02843009F04BC085E08093D7
:10244000080610923F0280917303833019F41092B2
:10245000730372C0E0915004F09151048281218194
:102460009927982F88273327822B932B85FF29C004
:1024700087749C7C8154984821F58781268199270F
:10248000982F88273327822B932B8F5F9F4FC9F07C
:1024900090E080911804882309F491E0992389F051
:1024A00012E01093A00581E08093180480918400CD
:1024B0009091850061EE72E00E94D904109373033D
:1024C0003BC01092730310920A0680E00E9403053D
:1024D00033C0853089F580910806873091F42898BB
:1024E00082EC8EBD0DB407FEFDCF8EB586E08EBDAD
:1024F0000DB407FEFDCF8EB5289A85E080930806BF
:1025000017C020917803289886E88EBD0DB407FE89
:10251000FDCF8EB51EBC0DB407FEFDCF8EB5289A3B
:102520008F71922F96959695891B280F209378038B
:1025300089E080933F0208C090913F02992309F4FB
:10254000E2C2993009F00FC2289880E28EBD0DB426
:1025500007FEFDCF8EB51EBC0DB407FEFDCF8EB5B8
:10256000482F5527433008F49EC3842F99278A9714
:102570000CF099C31EBCE0918802F091890240835F
:10258000542F5250573010F4452F01C047E09F019F
:102590002F5F3F4F942FF90160E070E00DB407FE0C
:1025A000FDCF8EB51EBC808381916827062E629573
:1025B000607F6025072E762F62956F7006266695E0
:1025C00076276727660F660F660F6025915031F7F3
:1025D0004150D901A40FB11D4F5F1196E0918802BF
:1025E000F09189028181282F3327277030702230A3
:1025F000310509F491E09923B9F080917303823099
:1026000081F48381E0915004F09151049381891702
:1026100041F490E02230310509F091E081E0982703
:102620000EC080E090E00DC08FB7F894282F3327BC
:1026300090E080910105833008F491E02FBF892F4D
:102640009927892B09F42FC3952F941B18C00DB41B
:1026500007FEFDCF8EB51EBC8C938D916827062E8C
:102660006295607F6025072E762F62956F70062633
:10267000669576276727660F660F660F602591506F
:1026800030F70DB407FEFDCF8EB51EBC9B01282789
:10269000022E2295207F2025032E322F22952F7087
:1026A0000226269532272327220F220F220F2025CC
:1026B0000DB407FEFDCF8EB51EBC2827022E229535
:1026C000207F2025032E322F22952F70022626955B
:1026D00032272327220F220F220F20250DB407FEB9
:1026E000FDCF8EB5E0918802F091890281AB289AE6
:1026F00085E08093080610923F02232B09F0FFC16A
:10270000E0908802F090890257010894A11CB11C46
:10271000F701818190E08770823009F491E0292FE0
:102720003327122F809173038230C9F480916F0098
:102730008D7F80936F0010921804E0915004F09107
:10274000510480A9222311F0816001C08E7F80ABEB
:102750001092730310920A0680E00E940305112371
:1027600009F0FCC0C7010E940D058823A9F085E08F
:102770008093540482E08093550410925604F5012E
:1027800082818093570484E594E00E94230A882381
:1027900019F483E080937303009184001091850005
:1027A000C7010E940D05882311F0045E1C4F109391
:1027B000600300935F038091840090918500081B63
:1027C000190BC801101611066CF420910A06222379
:1027D00031F40E94250980E880930A0603C020682E
:1027E00020930A06F501808527819927582F4427D1
:1027F0003327422B532B80919302282F3327F90143
:10280000EE0FFF1FED55FA4F8081918170914505C4
:102810008417950769F4F901E55FF94F80818717FF
:1028200009F467C0872F8F5F8093450580831DC0A3
:1028300000E010E080E090E0C3EAD5E0EBE0F6E0F5
:10284000DF01682F9C01888199818417950779F4AD
:1028500020939302909145058C91891709F449C002
:10286000892F8F5F809345058C9300E829C0808174
:10287000972F981B091710F4092F122F6F5FC901AA
:10288000019611962296319685309105D1F66530E4
:10289000B9F410939302A12FBB27FD01EE0FFF1F88
:1028A000ED55FA4F51834083809145058F5F8093AA
:1028B0004505FD01E55FF94F8083AF5EB94F1C927E
:1028C00090914505892F8F778F3779F40F3768F00E
:1028D000EBE0F6E0292F207880818F678913208331
:1028E000319636E0E031F307B9F780919302282F53
:1028F0003327F5019281A22FBB27FD01EF5EF94F2F
:10290000808180FF07C0FD01E859FA4F8081981748
:1029100029F102C081608083A859BA4F9C93CFB639
:10292000F894809101058330B0F4E0918A02E80FB9
:10293000E33008F0E350FF27EE0FFF1FEB58FD4F89
:1029400000811181F182E0828F5F8093010586E032
:102950000E943E0278018C2D99278FBFF092890248
:10296000E0928802C3C0892F8150833008F09CC058
:1029700081508230E0F4309108063130C1F420E01B
:1029800080911804882309F421E0222381F02F98F4
:1029900083E08093A0053093180480918400909187
:1029A00085006BE273E00E94D90482E068C0933036
:1029B00009F042C080910806833009F097C00E9458
:1029C000F7098823C9F128988FE88EBD0DB407FE5A
:1029D000FDCF8EB51EBC0DB407FEFDCF8EB5289A77
:1029E0008091810080648093810080E286BB809129
:1029F0006F00806280936F0090914203289888EC6A
:102A00008EBD0DB407FEFDCF8EB590669EBD0DB494
:102A100007FEFDCF8EB5289A289882EC8EBD0DB4A6
:102A200007FEFDCF8EB586E08EBD0DB407FEFDCF4F
:102A30008EB5289A84E023C080913F028150823075
:102A400000F5809108068530E1F40E94F70988239B
:102A5000C1F0289882EC8EBD0DB407FEFDCF8EB577
:102A600083E08EBD0DB407FEFDCF8EB5289A809110
:102A70006F008F7D80936F001092A20583E080939A
:102A8000080690913F02913041F48091080683300E
:102A9000B1F52F9A9093080625C0923039F58091B0
:102AA0000806833061F51EC0973001F50E94F709D2
:102AB0008823E1F090914203289888EC8EBD0DB4F4
:102AC00007FEFDCF8EB590669EBD0DB407FEFDCF0F
:102AD0008EB5289A80910806853021F484E0809391
:102AE000080604C088E080933F0204C080913F0242
:102AF000883029F410923F0284E00E943E028091C7
:102B00003F02882331F5809108068530F9F48091E1
:102B1000A2058823D9F4809173038823B9F48091A6
:102B20000A06882399F490E080911804882309F418
:102B300091E0992359F080913E02813039F485E08B
:102B40000E943E0280913F02882319F480E00E9497
:102B50003A0580911804823009F098C01092180448
:102B6000C090A005F2E0CF1609F46CC023E0C216B5
:102B700009F470C031E0C31609F088C020915F03EA
:102B800030916003809184009091850040910A0605
:102B9000403859F410920A0680913E02813009F0C3
:102BA00075C085E00E943E0271C08901081B190BA7
:102BB00047FF03C010161106ECF0C0917003D091CE
:102BC0007103809173038823A9F4CE010E94230A24
:102BD0009927882351F488A98E7F88ABC09273030C
:102BE000D0935104C093500429C09927F82E88230C
:102BF00029F102C0B5E0FB2E20910A06822F992709
:102C00008F77019759F42078226020930A0680E19B
:102C100098E00E9490050E94250938C027FF0AC04D
:102C2000101611063CF480E880930A06C8010E9441
:102C3000250902C010920A068F2D09C083E08093F7
:102C40000A0624C01092730310920A0680E00E94C4
:102C500003051CC080910806823019F4C092080652
:102C600013C080913F02863079F410923F02289879
:102C700081E88EBD0DB407FEFDCF8EB51EBC0DB430
:102C800007FEFDCF8EB5289A0E947C168FB7F89468
:102C9000282F332780913F03813061F081E08093BA
:102CA0003F032FBF31CB289A85E08093080610920E
:102CB0003F0225CF10923F032FBFDF91CF911F918D
:102CC0000F91FF90EF90DF90CF90BF90AF9008955D
:102CD0008FB7F894282F332780913F03815080933A
:102CE0003F03803811F02FBF089581E080933F03A8
:102CF0002FBF0E947A1108958FB7F894282F332799
:102D000080913F03882329F0806880933F032FBF81
:102D1000089581E080933F032FBF0E947A110895A8
:102D200078941F920F920FB60F9211242F933F9316
:102D30004F935F936F937F938F939F93AF93BF93C3
:102D4000EF93FF93809184009091850020918600FD
:102D5000309187008FB7F894992730931604209309
:102D6000150421E02093A2058FBF0E947C16FF91DD
:102D7000EF91BF91AF919F918F917F916F915F91F3
:102D80004F913F912F910F900FBE0F901F9018956C
:102D900078941F920F920FB60F9211242F933F93A6
:102DA0004F935F936F937F938F939F93AF93BF9353
:102DB000EF93FF9380916F008D7F80936F007894E5
:102DC0009FB7F89480911804813019F482E08093C1
:102DD0001804892F99278FBF0E947C16FF91EF91CD
:102DE000BF91AF919F918F917F916F915F914F9123
:102DF0003F912F910F900FBE0F901F9018951F932A
:102E00008FB7F894992720913F032F5F20933F03BA
:102E10008FBF80913E02882311F015E023C080917E
:102E20003F028823E1F480910806813049F490E064
:102E300080911804882309F491E0992381F005C05A
:102E4000853019F489E090E00CC083E080933F0264
:102E50000E947C1684E080933E0210E003C085E06F
:102E600090E0182F0E946816812F99271F910895CE
:102E7000EF92FF920F931F938091B904843090F4E6
:102E800010927E0264E5E62EF12C012D112D2BEE21
:102E900032E040E050E060E070E080916F030E941B
:102EA000A90C05C00E94FF1683E080937E021F914B
:102EB0000F91FF90EF900895EF92FF920F931F9361
:102EC00080917E02823009F04EC080918D02992758
:102ED000982F882720918E023327822B932BE81678
:102EE000F906A9F080916F03813049F0813028F014
:102EF000823049F08330B9F508C08AE001C08DE026
:102F00000E94B81030C08BE0FBCF8CE0F9CF40912D
:102F100046034F5F409346038091F3024817B0F495
:102F200081E080937E025527440F551F40585F4F24
:102F300066277727E2E0EE2EF12C012D112D2DE8EA
:102F400032E080916F030E94A90C0DC0E091B9049A
:102F5000EF5FE093B904FF27EE5FFD4F8081809320
:102F60006F030E9438171F910F91FF90EF90089503
:102F7000CF92EF92FF920F931F93873061F08830CA
:102F800018F4863079F405C0883039F0893051F46E
:102F900006C080E005C082E003C083E001C081E09C
:102FA0000E945C171F910F91FF90EF90CF900895B2
:102FB00080917E02823019F0833071F4FBCFE09172
:102FC000B904EF5FE093B904FF27EE5FFD4F808106
:102FD00080936F030E94381708959F92AF92BF921B
:102FE000CF92DF92EF92FF920F931F93982EF901E9
:102FF00080917E02813009F4D5C0813008F478C018
:10300000843009F012C183E080937E028091AE0586
:10301000882309F00AC1A280BB24CC24DD24DC2C47
:10302000CB2CBA2CAA242081332744275527522F92
:1030300044273327222781819927AA27BB27DC0130
:1030400099278827282B392B4A2B5B2B838199279B
:10305000AA27BB27282B392B4A2B5B2BA22AB32A62
:10306000C42AD52AE0906803FF2400271127102FD7
:103070000F2DFE2CEE24209166033327442755277D
:10308000522F442733272227809167039927AA27A5
:10309000BB27DC0199278827282B392B4A2B5B2B50
:1030A000809169039927AA27BB27282B392B4A2B04
:1030B0005B2BE22AF32A042B152BAE14BF04C006A7
:1030C000D10681F480916503843051F440E050E0F2
:1030D00060E070E0892D0E944E040E949308A5C014
:1030E00081E001C082E0809331020E946F099DC09F
:1030F000CC2009F09AC0E090ED02FF2400271127B0
:10310000102F0F2DFE2CEE242091EB0233274427A5
:103110005527522F4427332722278091EC029927E5
:10312000AA27BB27DC0199278827282B392B4A2B74
:103130005B2B8091EE029927AA27BB27282B392BDE
:103140004A2B5B2BE22AF32A042B152B4FEFE416B4
:103150004FEFF4064FEF04074FEF1407A9F010925A
:10316000460381E080937E02B2E0EB2EF12C012D2C
:10317000112D2DE832E040E850E060E070E08091F1
:103180006F030E94A90C51C0E091B904EF5FE09376
:10319000B904FF27EE5FFD4F808180936F030E948B
:1031A000381743C082E080937E02809146039927BE
:1031B00020E534E0AC01429FC001439F900D529F37
:1031C000900D112480589E4FAC01662757FD6095E5
:1031D000762F80916F03813079F0813028F0823032
:1031E00099F0833011F518C0EE24FF2400E514E0B7
:1031F00020E030E086E017C0EE24FF2400E514E074
:1032000020E030E089E00FC0EE24FF2400E514E068
:1032100020E030E087E007C0EE24FF2400E514E062
:1032200020E030E088E00E94C60C1F910F91FF90D3
:10323000EF90DF90CF90BF90AF909F900895AF92A6
:10324000BF92CF92DF92EF920F931F93209151057F
:1032500033272150304081E090E0A0E0B0E004C08E
:10326000880F991FAA1FBB1F2A95D2F780934D057F
:1032700090934E05A0934F05B09350050E94AD0268
:10328000A0904D05B0904E05C0904F05D0905005D0
:10329000882799270894A108B108C108D1086A2194
:1032A0007B218C219D210894A11CB11CC11CD11C27
:1032B000A60EB71EC81ED91EA0924D05B0924E058F
:1032C000C0924F05D0925005809152058E7F809319
:1032D000520580912A058D7F80932A050E948402E1
:1032E000AB01BC0191E0E92E9601850183E00E94CB
:1032F00065021F910F91EF90DF90CF90BF90AF903C
:10330000089580915105893029F089E08093510515
:103310000E941F190895AF92BF92CF92DF92EF9251
:10332000FF920F931F930E9484027B018C01609196
:103330002B0570912C0580912D0590912E05A09064
:103340003502B0903602C0903702D0903802A114F6
:10335000B104C104D10409F44EC0EFB7F894209130
:10336000460520FD36C0A8019701261B370B480BE8
:10337000590B2A153B054C055D05C8F4A21AB30A82
:10338000C40AD50A8091350290913602A091370285
:10339000B0913802821B930BA40BB50B80933502BE
:1033A00090933602A0933702B093380215C081E0A3
:1033B00090E0A0E0B0E08093350290933602A093B5
:1033C0003702B093380231E0A32EB12CC12CD12C9E
:1033D00003C02E7F209346058E2F99278FBF0E9412
:1033E0008402AB01BC0121E0E22E9601850184E05C
:1033F0000E94650205C0809133058D7F809333055F
:103400001F910F91FF90EF90DF90CF90BF90AF9002
:103410000895FF920F931F93CF93DF93F82E282FD9
:1034200033278BE090E0289FE001299FD00D389F43
:10343000D00D1124CD5CDD4F81E090E0998388832D
:103440001A868A819B81AC81BD810097A105B10557
:10345000A1F00FB7F8941127C9010E9414060FBFFD
:103460001A821B821C821D821E821F821886198668
:103470008F2D0E942D060E948B19DF91CF911F91F5
:103480000F91FF900895AF92BF92CF92DF92EF928B
:103490000F931F93882389F00E94AD025B016C019A
:1034A0008FEF90E0A0E0B0E0A822B922CA22DB2290
:1034B00080E190E0A0E0B0E010C00E94AD025B01AE
:1034C0006C018FE790E0A0E0B0E0A822B922CA2208
:1034D000DB2280E890E0A0E0B0E0A80EB91ECA1E92
:1034E000DB1E0E948402AB01BC01E1E0EE2E9601DE
:1034F000850182E00E9465021F910F91EF90DF909D
:10350000CF90BF90AF9008950F931F93CF93DF9309
:103510000CEB14E06FE0C8010E94FB01EC01892B69
:1035200009F482C0809126028430B9F58091280286
:10353000882309F079C081E08093280285E00E9409
:10354000191B80910505909106058983892F99277C
:10355000888380910002909101028B83892F9927A3
:103560008A832091160230911702409118025091DF
:103570001902FE0134962383BB27A52F942F832F96
:103580008283CA01AA27BB278183252F332744279B
:1035900055272C8380911A028887809126028530D6
:1035A00009F042C08091AF05882331F080E00E948D
:1035B000431A1092AF0538C080917203882321F41A
:1035C00081E00E94191B30C0809187048987809117
:1035D00088048A87809189048B8780918A048C87EC
:1035E00080918B048D8780918C048E8788819927A8
:1035F000982F882729813327822B932B8093C2040D
:10360000892F99278093C304C8010E943603FC01C7
:1036100081E580834FE0B80182E00E94170F882384
:1036200019F080E00E94431ADF91CF911F910F9112
:103630000895823040F490912602933011F0953035
:1036400011F4109228028093260208950F931F937D
:103650008B019C0190912602892F8250823030F597
:103660008091110290911202A0911302B091140264
:10367000081719072A073B074CF0081719072A07EC
:103680003B0781F580911502481760F581E00E94A3
:10369000191B109247051092480510924905109287
:1036A0004A0510924B0510924C051CC09450923064
:1036B000C8F48091160290911702A0911802B0915F
:1036C0001902081719072A073B074CF008171907B2
:1036D0002A073B0739F480911A02841718F081E019
:1036E0008093AF051F910F910895CF92EF920F93A2
:1036F0001F93CF93DF938901CCEBD4E06CE1CE0133
:103700000E94FB0106960817190771F580912602A1
:10371000833051F5CC2021F081E00E94191B24C098
:1037200080910505909106058093C204892F992701
:103730008093C304CE010E943603FC0182E580839E
:103740004CE1BE0183E00E94170F882369F00E94BC
:103750008402AB01BC01E1E0EE2E00E110E020E0CC
:1037600030E082E00E946502DF91CF911F910F91BE
:10377000EF90CF900895CF92EF92FF920F931F9307
:103780008630C1F0873038F4813071F0813050F0EC
:103790008230C9F40DC0883089F0883068F08930F3
:1037A00091F40EC082E001C083E00E94751B0BC043
:1037B00081E0FBCF80E005C082E003C083E001C070
:1037C00081E00E94ED171F910F91FF90EF90CF9035
:1037D0000895DF92EF92FF920F931F937B018C016C
:1037E000D42E80912602882319F481E00E94191BAF
:1037F000E0921602F0921702009318021093190239
:10380000D0921A028FEF809387048093880480936C
:10381000890480938A0480938B0480938C0480E0D5
:1038200090E01F910F91FF90EF90DF900895DF924D
:10383000EF92FF920F931F93CF93DF93CDB7DEB735
:1038400022970FB6F894DEBF0FBECDBFD0902602F0
:103850008D2D8250823008F0CBC0E0905705FF24B8
:1038600000271127102F0F2DFE2CEE242091550537
:10387000332744275527522F442733272227809167
:1038800056059927AA27BB27DC0199278827282BCB
:10389000392B4A2B5B2B809158059927AA27BB27E8
:1038A000282B392B4A2B5B2BE22AF32A042B152BCE
:1038B0008091110290911202A0911302B091140212
:1038C0008E159F05A007B10729F4809152058160EC
:1038D000809352056CE18CEB94E00E94FB018C011B
:1038E00082E0D81639F580912802882309F080C03B
:1038F00081E08093280283E00E94191B80911102CD
:1039000090911202A0911302B0911402F8018383E6
:10391000292F3A2F4B2F552722839D0144275527C6
:1039200021838B2F9927AA27BB278083809115029B
:1039300084831582F801658177272FE230E047E420
:1039400055E0CE0101960E940202882321F081E019
:103950000E94191B4DC08981F80185838091150251
:10396000482F5527662777278AE0440F551F661F83
:10397000771F8A95D1F7898126E1829FC0011124A2
:10398000AA27BB27480F591F6A1F7B1F98012A5F70
:103990003F4FE0912702E23069F0E33091F0E130EF
:1039A00011F081E016C006E1E02EF12C012D112D61
:1039B00082E00DC016E1E12EF12C012D112D80E0E9
:1039C00006C0B6E1EB2EF12C012D112D81E00E94F5
:1039D0005C0C882369F00E948402AB01BC01A1E069
:1039E000EA2E00E110E020E030E082E00E94650273
:1039F00022960FB6F894DEBF0FBECDBFDF91CF91F8
:103A00001F910F91FF90EF90DF900895AF92BF92BA
:103A1000CF92DF92EF92FF920F931F93CF93DF939A
:103A20005B016C01C0E0D0E0E7E0F5E07C2F608551
:103A300061FF16C12081318142815381E480F5808C
:103A400006811781D601C501821B930BA40BB50B10
:103A50008E159F05A007B10708F402C160FF03C0DF
:103A60006D7F608708C02E0D3F1D401F511F2083B2
:103A7000318342835383723009F45AC0733030F477
:103A8000772359F0713009F0F1C047C0733009F461
:103A900054C0743009F0EAC0AEC08091C005909166
:103AA000C10501969093C1058093C00580912202C3
:103AB000882309F0DBC064E08DE695E00E94FB01FD
:103AC000FC01892B09F4D2C080910002909101027F
:103AD0008183892F992780838091C0059091C105AA
:103AE0008383892F992782838FEF80937305809337
:103AF00074058DE695E00E943603FC0186E0808324
:103B000044E06DE675E080E00E94170F882309F01D
:103B1000ADC081E080932202A9C080918B02909178
:103B20008C02892B09F4A2C083E00E943E029EC051
:103B30000E94841A0E94171C99C08091520580FD32
:103B400036C06EE082EB92E00E94FB01FC01892B03
:103B500071F180912502882351F5809100029091A6
:103B600001028183892F9927808382E082831382D7
:103B70003496A5E5B5E089E00D9001928150E1F71A
:103B80008FEF8093B8028093B90282EB92E00E949B
:103B90003603FC0180E580834EE062EB72E081E059
:103BA0000E94170F882319F481E08093250290E08A
:103BB00080912602823008F091E08091520599238D
:103BC00019F08170846007C0982F969531F091505C
:103BD000990F8170892B80935205809152058E7FB9
:103BE00039F480915105863118F48F5F8093510527
:103BF0000E941F193BC020912F0530913005409144
:103C00003105509132058091350290913602A09194
:103C10003702B09138020097A105B105F1F0821783
:103C20009307A407B507C9F480913D02882361F486
:103C30002FB7F894332780910305816080930305A3
:103C40002FBF84E10E943E0280E090E00E941406B3
:103C500080E00E942D0610923D020E948B1906C042
:103C600021963996C630D10509F0E0CE81E00E9458
:103C70003E02DF91CF911F910F91FF90EF90DF9067
:103C8000CF90BF90AF90089580912A058D7F80934B
:103C90002A05809121058D7F8093210580E00E9477
:103CA000191B8FEF90E0A0E0B0E080931602909394
:103CB0001702A0931802B09319029FEF90931A0273
:103CC00010928704109288041092890410928A043A
:103CD00010928B0410928C041092470510924805A4
:103CE0001092490510924A0510924B0510924C050E
:103CF00085E080931002909358051092570510921A
:103D00005605109255059093590590935C051092B5
:103D1000510580E090E00895EF92FF920F931F937A
:103D200080915C05E82FFF2780915905E817A0F5E1
:103D300060915705772788279927982F872F762F07
:103D40006627E0905505FF24002711271E2D002728
:103D5000FF24EE2420915605332744275527A90137
:103D600033272227E22AF32A042B152B209158050A
:103D7000332744275527E22AF32A042B152B6E29D3
:103D80007F29802B912B4E2F0E94E91B84E080938A
:103D900052050E9481191BC04FEF6FEF70E080E069
:103DA00090E00E94E91B0E94441E81E08093100273
:103DB00080917B02823031F0833031F0813039F4F0
:103DC00085E003C083E001C084E00E941B111F91C5
:103DD0000F91FF90EF90089583E0809310028091FF
:103DE0007F0290918002A0918102B0918202809323
:103DF0005805292F3A2F4B2F5527209357059D0102
:103E000044275527209356058B2F9927AA27BB2790
:103E10008093550580913D0590913E05A0913F0509
:103E2000B09140050197A109B1093AE0B695A7956F
:103E3000979587953A95D1F78F5F809359051092A2
:103E40005C0545E065E575E080E090E00E94B10327
:103E500080935B05892F992780935A0580911002E2
:103E6000833011F40E94811984E0809310028091C4
:103E70007B02809327020E948C1E08958B3029F1CB
:103E80008C3060F48430C1F0853018F4833071F5E3
:103E900013C0853089F08A3049F515C08E30E9F0BD
:103EA0008F3028F48C3099F08D3001F512C08F30AE
:103EB000B1F08031D9F417C0809110028823B1F499
:103EC0000E94EC1E089580E005C082E003C083E0FC
:103ED00001C081E00E94D817089582E001C083E00C
:103EE0000E94B305089581E00E94B3050895CF9222
:103EF000EF92FF920F931F93CF93DF93CDB7DEB76F
:103F000022970FB6F894DEBF0FBECDBF809161033C
:103F1000482F55278CE190E0489FF001499FF00D14
:103F2000589FF00D1124CF018D529A4F2817390751
:103F300009F0F0C0CC2071F08FEF8093870480935C
:103F400088048093890480938A0480938B048093EF
:103F50008C04D7C0EE52FA4F20813327E22FE6952A
:103F6000E695E695FF27E957FB4F2770307081E013
:103F700090E002C0880F991F2A95E2F78095208172
:103F800028232083CA01019662E070E00E9410336A
:103F9000809361038091AA0281508093AA022FE24C
:103FA00030E047E854E060E070E0CE0101960E9406
:103FB0000202882309F4A8C060911A02E090570514
:103FC000FF2400271127102F0F2DFE2CEE24209107
:103FD0005505332744275527522F442733272227B7
:103FE000809156059927AA27BB27DC0199278827A6
:103FF000282B392B4A2B5B2B809158059927AA2710
:10400000BB27282B392B4A2B5B2BE22AF32A042BC4
:10401000152B8091160290911702A0911802B09171
:1040200019028E159F05A007B10709F067C080919E
:104030005C05681709F062C06F5F60935C0545E03E
:1040400065E575E080E090E00E94B10380935B0538
:10405000892F992780935A0580915C05E82FFF27C7
:1040600080915905E81718F40E948C1E47C0609192
:104070005705772788279927982F872F762F662728
:10408000E0905505FF24002711271E2D0027FF244F
:10409000EE2420915605332744275527A9013327BD
:1040A0002227E22AF32A042B152B209158053327C7
:1040B00044275527E22AF32A042B152B6E297F2942
:1040C000802B912B4E2F0E94E91B81E080931002E0
:1040D00080917B02823041F0833041F0813011F0D9
:1040E00081E007C085E003C083E001C084E00E9456
:1040F0001B11882319F08CE00E943E0281E00E948F
:10410000191B1092AA0206C08091AA02882311F0FE
:104110000E94670D22960FB6F894DEBF0FBECDBF8A
:10412000DF91CF911F910F91FF90EF90CF90089565
:10413000CF92EF92FF920F931F93843031F085302E
:1041400031F0833039F482E003C083E001C081E0C4
:104150000E94771F1F910F91FF90EF90CF900895CD
:10416000CF92DF92EF92FF920F931F93CF93DF9343
:10417000C82E7B01D0901B02CD2DDD278BE090E077
:10418000C89FF001C99FF00DD89FF00D1124E3578F
:10419000FB4F10818FEF80931B02108281E0D816B5
:1041A00059F0D81638F082E0D81641F083E0D816DE
:1041B00051F406C080E005C081E003C082E001C088
:1041C00083E00E940A04133009F4A3C0143030F4D1
:1041D0001130B1F1123009F0AEC05EC0143021F0E0
:1041E000153009F0A8C06CC0E090E502F090E6023E
:1041F0000091E7021091E8028BE090E0C89FF00187
:10420000C99FF00DD89FF00D1124E357FB4F438158
:104210005481658176812181328181E0D81649F00F
:10422000D81638F082E0D81621F083E0D81609F0CD
:1042300082C010922902809109060E94BB1B7BC09C
:10424000E090E502F090E6020091E7021091E802AA
:104250008BE090E0C89FF001C99FF00DD89FF00D52
:104260001124E357FB4F438154816581768121817D
:10427000328181E0D81649F0D81638F082E0D8169D
:1042800021F083E0D81609F056C0109229028091DF
:1042900009060E9498204FC081E0D81649F0D81630
:1042A00038F082E0D81621F083E0D81609F043C038
:1042B000109229026C2D809109060E943E1F3BC07E
:1042C0000091E5021091E6022091E7023091E802A8
:1042D0008BE090E0C89FF001C99FF00DD89FF00DD2
:1042E0001124E357FB4F438154816581768181E03E
:1042F000D81641F0D81630F082E0D81619F083E0D5
:10430000D816C9F410922902809109060E94B817A4
:1043100012C081E0D81641F0D81630F082E0D816ED
:1043200019F083E0D81639F4109229026C2D80918F
:1043300009060E942910DF91CF911F910F91FF90E4
:10434000EF90DF90CF900895282F80915C034093E9
:104350005C038330A9F0843028F4813089F0823006
:1043600069F506C0843009F18650823038F513C0F3
:1043700080911B028F3F11F1222389F4CB0108C0E9
:1043800080911B028F3FD1F0222349F480E090E01E
:104390000E947823089580911B028F3F79F060E09E
:1043A00070E0822F0E94B020089580911B028F3F01
:1043B00029F060E070E0822F0E94B0200895CF9233
:1043C000DF92EF92FF920F931F932091630330913E
:1043D000640360910405462F5527FA01EE0FFF1F75
:1043E000E40FF51FDF01A455BD4F8D919C911197EE
:1043F0002817390709F0D3C090915C03953009F470
:104400004DC0963080F4923009F493C0933020F47C
:10441000913009F0F7C072C0933009F4A5C0943010
:1044200009F0F0C007C0983008F447C09A3008F08F
:10443000E9C04EC08091C2059091C30581309105BD
:10444000E1F08130910520F0029709F0DBC010C047
:1044500080917D02882309F0BBC001E0C02ED12CE1
:10446000EE24FF2400E010E040E061E88BE0C8C0EB
:10447000E255FD4F808184608083FA01EE0FFF1FBB
:10448000E40FF51FE255FD4F80818260808340E09C
:1044900060E070E080E00E94A421B4C0E255FD4FCE
:1044A000808181FF9CC08091C2059091C3058D934E
:1044B0009C9380818D7F808319C0E255FD4F808160
:1044C00081FF8DC0869586958695837059F08AC048
:1044D000FA01EE0FFF1FE40FF51FE255FD4F80813B
:1044E00081FF7DC0983011F0963011F48DE074C0DA
:1044F00010925C03892F0E94092384C0E255FD4F6E
:10450000808180FD65C0C090FF04D0900005E090E0
:104510007A03F0907B030091C2051091C3056623D6
:1045200011F064ED01C066ED20E030E042E082E091
:1045300067C0E255FD4F808180FD4AC0E0907A035C
:10454000F0907B03C090FF04D09000050091C2055D
:104550001091C305662311F064ED01C066ED20E003
:1045600030E042E083E04CC0E255FD4F808180FDA9
:104570002FC0C090FF04D0900005E0907A03F09027
:104580007B030091C2051091C305662311F064E816
:1045900001C067E820E030E040E084E031C0E2554F
:1045A000FD4F808181FF1BC086958695869583701F
:1045B000C9F480915C03843019F42D933C930DCFA2
:1045C00080917D02882321F4662381F063E50FC08A
:1045D00085E080932A0280E10E943E0213C00E947F
:1045E0003F1010C0862F0E9480100CC065E5A1E02E
:1045F000CA2ED12CEE24FF2400E010E040E088E039
:104600000E94FB0F1F910F91FF90EF90DF90CF90D2
:10461000089580935C038091AE0281FD03C01092E7
:1046200004050CC08091B10281FD04C081E080933B
:10463000040504C08DE00E943E02089580910405A7
:104640009927FC01EE0FFF1FE80FF91FE255FD4F00
:104650008081877E80830E94DF2108950F931F93BE
:1046600080935C03109300050093FF0430937B0359
:1046700020937A0370936403609363035093C3059C
:104680004093C2058091AC029091AD026817790702
:1046900019F41092040513C08091AF029091B002FA
:1046A0006817790721F481E08093040508C090E041
:1046B00080910405882309F491E0909304056050EB
:1046C000784068F481E04830580748F481E00930C8
:1046D000180728F4400F511F4950514020F08EE038
:1046E0000E943E0202C00E94DF211F910F91089597
:1046F0002F923F924F925F926F927F928F929F92F2
:10470000AF92BF92CF92DF92EF92FF920F931F93DF
:10471000CF93DF931C0140911B02242F332760901D
:10472000E5027090E6028090E7029090E8028BE04C
:1047300090E0289FE001299FD00D389FD00D1124D3
:10474000C357DB4FAF80B884C984DA84A618B70892
:10475000C808D90849805A80A114B104C104D10401
:1047600029F4B10180E00E94B0204FC0EB80FC80B2
:104770000D811E81E60CF71C081D191D9927812F3C
:10478000702F6F2D842F0E94C505BC01A7015070AA
:10479000E12C31E0F32EE41AF50AC701AA27BB2762
:1047A000A816B906CA06DB0608F47501288124306C
:1047B00051F0253071F0213089F4460C571C8701E7
:1047C000920183E009C0460C571C8701920181E0E9
:1047D00003C08701910182E00E942E2397014427A4
:1047E00055278091E5029091E602A091E702B091F1
:1047F000E802820F931FA41FB51F8093E5029093D8
:10480000E602A093E702B093E802DF91CF911F91F7
:104810000F91FF90EF90DF90CF90BF90AF909F905F
:104820008F907F906F905F904F903F902F90089562
:104830000F931F93482F80931B02282F33278BE061
:1048400090E0289FF001299FF00D389FF00D112472
:10485000E357FB4F8081823019F08330A9F410C0F8
:1048600060E070E0842F0E94C50500E010E020E0C9
:1048700030E040E050E0BC0184E00E942E2310C0F4
:1048800087E00E9409230CC0818192811092E50289
:104890001092E6021092E7021092E8020E9478233A
:1048A0001F910F91089581E10E94C103809131020F
:1048B000823031F460916A03772780E00E94860994
:1048C0000E94441E109231020895AF92BF92CF927F
:1048D000DF92EF92FF920F931F9380915E059927CD
:1048E000813041F0813008F4C9C08350823008F033
:1048F000C5C003C00E945324C1C0809131028230E0
:1049000009F064C0A0906105BB24CC24DD24DC2C1C
:10491000CB2CBA2CAA2420915F0533274427552796
:10492000522F442733272227809160059927AA27F1
:10493000BB27DC0199278827282B392B4A2B5B2B97
:10494000809162059927AA27BB27282B392B4A2B50
:104950005B2BA22AB32AC42AD52AE0906803FF243D
:1049600000271127102F0F2DFE2CEE242091660317
:10497000332744275527522F442733272227809156
:1049800067039927AA27BB27DC0199278827282BAB
:10499000392B4A2B5B2B809169039927AA27BB27C8
:1049A000282B392B4A2B5B2BE22AF32A042B152BBD
:1049B000AE14BF04C006D10639F49091630580910E
:1049C0006A03981709F45AC00E945324E0906105C5
:1049D000FF2400271127102F0F2DFE2CEE242091ED
:1049E0005F05332744275527522F44273327222793
:1049F000809160059927AA27BB27DC019927882782
:104A0000282B392B4A2B5B2B809162059927AA27EB
:104A1000BB27282B392B4A2B5B2BE22AF32A042BAA
:104A2000152B83E9E81680ECF8068FE708078DEF71
:104A30001807F9F09091630580917E028330F1F4BC
:104A40001092AE0564E5E62EF12C012D112D2BEE12
:104A500032E040E050E060E070E0892F0E94A90C55
:104A6000882311F484E002C080917E0280937E024C
:104A700005C081E0809331020E946F09A5E6B3E092
:104A8000EEE5F5E08AE001900D928150E1F71F918B
:104A90000F91FF90EF90DF90CF90BF90AF9008956F
:104AA000EF92FF920F931F9379018A016A3018F0F9
:104AB0004AE050E002C0462F5527BC018EE595E044
:104AC0000E947933E0922D02F0922E0200932F0281
:104AD000109330020E9465241F910F91FF90EF9078
:104AE00008957F928F929F92AF92BF92CF92DF9262
:104AF000EF92FF920F931F9380913102813021F04A
:104B0000823009F04CC1CAC080906A03A0906D0346
:104B1000BB24CC24DD24DC2CCB2CBA2CAA24209161
:104B20006B03332744275527522F44273327222747
:104B300080916C039927AA27BB27DC019927882736
:104B4000282B392B4A2B5B2B80916E039927AA27A0
:104B5000BB27282B392B4A2B5B2BA22AB32AC42A2A
:104B6000D52AE0906803FF2400271127102F0F2D6E
:104B7000FE2CEE2420916603332744275527522F1D
:104B8000442733272227809167039927AA27BB2729
:104B9000DC0199278827282B392B4A2B5B2B809106
:104BA00069039927AA27BB27282B392B4A2B5B2B74
:104BB000E22AF32A042B152B0E94441E82E08093E4
:104BC0001002E0925805BB27A12F902F8F2D8093C4
:104BD0005705C801AA27BB2780935605E12EFF245D
:104BE00000271127E09255050894A108B108C108D3
:104BF000D108BAE0D694C794B794A794BA95D1F7E0
:104C0000A394A0925905A0925C0545E065E575E086
:104C100080E090E00E94B10380935B05892F992783
:104C200080935A0580911002823011F40E948119FC
:104C300084E0809310028092270240915905552705
:104C400060915705772788279927982F872F762FE8
:104C50006627C0905505DD24EE24FF24FC2CEE24AD
:104C6000DD24CC24009156051127222733279801F3
:104C700011270027C02AD12AE22AF32A00915805D9
:104C8000112722273327C02AD12AE22AF32A6C29A6
:104C90007D298E299F290E94E91B81C080906A038B
:104CA0009924A0906D03BB24CC24DD24DC2CCB2CD8
:104CB000BA2CAA2420916B03332744275527522F5F
:104CC00044273327222780916C039927AA27BB27E3
:104CD000DC0199278827282B392B4A2B5B2B8091C5
:104CE0006E039927AA27BB27282B392B4A2B5B2B2E
:104CF000A22AB32AC42AD52AE0906803FF240027F9
:104D00001127102F0F2DFE2CEE2420916603332740
:104D100044275527522F44273327222780916703A2
:104D20009927AA27BB27DC0199278827282B392B0D
:104D30004A2B5B2B809169039927AA27BB27282B35
:104D4000392B4A2B5B2BE22AF32A042B152B0E94CA
:104D5000441EE0927F02F092800200938102109341
:104D60008202A0923D05B0923E05C0923F05D092CE
:104D7000400580927B0282E0881641F083E088162D
:104D800039F081E0881639F485E003C083E001C082
:104D900084E00E94B810882311F4109210021F9131
:104DA0000F91FF90EF90DF90CF90BF90AF909F90CA
:104DB0008F907F900895EF920F931F938230D9F0D8
:104DC000833030F4882369F0813009F04DC010C081
:104DD000843009F447C08430D8F0853009F044C0ED
:104DE00041C06D56754009F03FC0109222023CC090
:104DF0001092250239C0809126028530A9F5809154
:104E0000720381508093720380E00E94431A2CC089
:104E10006CE18CEB94E00E94FB01FC01892B21F1F9
:104E20002581E22FE695E695E695FF27E95BFA4FA7
:104E3000277081E090E002C0880F991F2A95E2F761
:104E400080952081282320830E948402AB01BC012D
:104E500011E0E12E02E010E020E030E082E00E946C
:104E6000650202C010925B031F910F91EF900895AD
:104E7000EF92FF920F931F93CF93DF93E82E009151
:104E80008B0210918C0210928C0210928B028091F6
:104E900018058D7F8093180580915D0390915E03C6
:104EA000F80191A780A782858F33E1F480E00E940A
:104EB0005A03F0900F02F5E0FF15A0F0EF2DFF2749
:104EC000EE0FFF1FE151FB4FC081D181C017D10709
:104ED00049F4118210820E94B40E4E2DBE018F2D16
:104EE0000E94DB26DF91CF911F910F91FF90EF90F1
:104EF00008954F925F926F927F928F929F92AF929E
:104F0000BF92CF92DF92EF92FF920F931F93CF93B6
:104F1000DF93E82FFF27E631F10510F00C94472FBF
:104F2000E554FF4FEE0FFF1F0590F491E02D09941B
:104F30008091C805882309F099C50C94472F8FB735
:104F4000F8942091030520FD86C720E088C7809152
:104F5000E902882361F52091B9053091BA054091A5
:104F6000BB055091BC05EFB7F894FF276091840210
:104F7000709185028091860290918702E090C90528
:104F8000F090CA050091CB051091CC056E0D7F1DE8
:104F9000801F911FEFBF2093B9053093BA0540934E
:104FA000BB055093BC051092E9020E9441070E9484
:104FB000840243C00E9484023B014C018FB7F894E5
:104FC0009927109262038FBFBFEFEB2EBFEFFB2E2E
:104FD000BFEF0B2FBFE71B2F60E0E7E0F5E0808518
:104FE00081FF1CC080819181A281B381A4019301C2
:104FF000281B390B4A0B5B0BDA01C901248135816F
:1050000046815781281B390B4A0B5B0B2E153F0538
:10501000400751071CF479018A0161E0399635E0B7
:10502000ED33F307E1F6662309F431C71E141F04BC
:10503000100611062CF0C401B3010E94061D27C7FB
:10504000E092B905F092BA050093BB051093BC0538
:1050500081E08093E902A8019701C401B3010E9495
:10506000410715C72FB7F8943327809143038093E6
:105070000B0282E0809323022FBF80910B028823D2
:1050800009F005C780914403909145030E94E50D06
:10509000882E9924882009F4FAC680E00E945A03D9
:1050A000E0904403F0904503C7010E94360310913D
:1050B0000F02163008F0EBC6E12FFF27EE0FFF1F9F
:1050C000E151FB4FC081D181CE15DF0509F0DFC66C
:1050D000118210820E94B40E482DBE01F8C4E091E6
:1050E0008B02F0918C0280A591A5892B21F061E0C3
:1050F000CF010E94380380918B0290918C020E9414
:10510000CE0D882309F4C3C6D6C080913E0210920A
:105110003E02843009F043C08091350290913602FE
:10512000A0913702B09138020097A105B10531F581
:105130001092350210923602109237021092380205
:105140001092390210923A0210923B0210923C02E5
:1051500010923D0280E00E942D060FB7F8941127AF
:1051600080E090E00E9414060FBF0E948B1980E03F
:105170000E94091A81E080937C0203C080E00E94B3
:10518000091A81E0809383020E948402AB01BC0172
:10519000EE240AEF10E020E030E080E089C08530A6
:1051A00009F475C6863009F472C680933E026FC654
:1051B0008FB7F89499271091AB028FBF80913E0270
:1051C000823011F4112339F0809152048F5F809363
:1051D0005204863020F083E080933E023CC08FB7BB
:1051E000F894992720913F032F5F20933F038FBFAF
:1051F000209153053091540580910A068823D1F4FB
:1052000090E080911804882309F491E0992391F0AB
:10521000309371032093700381E080930A0686EB3C
:1052200093E20E9490050E94250982E080933E024D
:1052300010E00AC080915204853011F483E001C06F
:1052400081E080933E0215E00E94681680913E0244
:10525000833009F01CC610923E02E0915305F09194
:10526000540520915D0330915E032F5F3F4F3093D3
:105270005E0320935D0380A980FF02C080E01EC012
:10528000E0918B02F0918C0280A591A52817390737
:10529000A0F4CF010E94B1068C01892B61F00E941D
:1052A0008402AB01BC0122273327E1E0EE2E81E02E
:1052B0000E946502ECC583E0E3C5812F0E94382778
:1052C000E6C58FB7F894282F3327809101058823EE
:1052D00009F4D9C5E0918A02FF27EE0FFF1FEB58B2
:1052E000FD4FC081D1812FBF8A858F3309F0F0C275
:1052F000CE010E943603FC01E081DE016D913D018B
:105300008F812E819927582F44273327422B532BE7
:105310008FB7F894992720910602309107028FBF2A
:105320004217530721F04F5F5F4F09F0D5C22CE0C1
:10533000422E512C4C0E5D1EFF27E13509F4E1C0D1
:10534000E23530F4E63071F0E03509F0C5C21CC03A
:10535000E03609F412C2E13609F49AC2E23509F0E6
:10536000BBC26AC18AA999278A30910518F412989C
:10537000119A04C0419720F4129A1198109AACC265
:10538000129811981098A8C2BE01605F7F4F88895B
:105390002989AA88EB88BB24CC24DD24DC2CCB2CE7
:1053A000BA2CAA249927AA27BB27B82FAA2799275E
:1053B0008827332744275527A90133272227822B03
:1053C000932BA42BB52BFF24002711278E299F296F
:1053D000A02BB12BA82AB92ACA2ADB2AE0905705AC
:1053E000FF2400271127102F0F2DFE2CEE242091D3
:1053F0005505332744275527522F44273327222783
:10540000809156059927AA27BB27DC019927882771
:10541000282B392B4A2B5B2B809158059927AA27DB
:10542000BB27282B392B4A2B5B2BE22AF32A042B90
:10543000152BAE14BF04C006D10609F04DC28E85EF
:10544000823009F049C280911002843009F044C2D0
:105450000D89EE8845E080E090E00E94B1031127BD
:10546000102F0027FF240E291F290817190709F0FC
:1054700033C28D892E899927982F88273327822B2D
:10548000932B892B09F428C280911002843009F0F3
:1054900023C28F8940915C05282F3327421708F5D6
:1054A000809152058E7F51F50C85FD841091260266
:1054B000113021F584E00E94191B802F9927982F25
:1054C00088272F2D3327822B932B909306058093CB
:1054D0000505109372031092AF0581E00E94431AF4
:1054E0000DC090915205241728F491709460909308
:1054F000520504C0916090935205EEC10E9481193B
:10550000EBC180912602882309F4E6C12889E98845
:105510008A89AB889927AA27BB276624782E892EEB
:105520009A2E332744275527522F442733272227E3
:10553000FF24002711278701FF24EE242E293F296D
:10554000402B512BBB24CC24DD242A293B294C2978
:105550005D29622A732A842A952A4C895527142F9B
:10556000C401B3010E94261B8C852D859927982F95
:1055700088273327822B932B209100023091010240
:105580008217930709F0A8C1809116029091170223
:10559000A0911802B0911902681679068A069B0636
:1055A00009F09AC180911A02181708F095C18091EC
:1055B00026028130B9F08250823008F08DC180918E
:1055C000110290911202A0911302B0911402681678
:1055D00079068A069B0609F07FC18091150218178B
:1055E00009F07AC120E030E0E7E4F5E0DE0155960D
:1055F0009D918081892B81932F5F3F4F263031050C
:10560000B9F780912602813009F066C182E00E94DC
:10561000191B6092110270921202809213029092F2
:105620001402109315028FEF9FEF9093060580935D
:1056300005050E94171C50C180912602882309F499
:105640004BC148890C85CD846E858F84552777277B
:1056500088279927982F872F762F662711272227AB
:105660003327302F222711270027DD24EE24FF24A3
:105670007601DD24CC240C291D292E293F299924CB
:10568000AA24BB24082919292A293B29602B712B1C
:10569000822B932B0E94261B8C85ED842E85AF8454
:1056A000332744275527542F432F322F222799275A
:1056B000AA27BB27B82FAA2799278827FF240027C6
:1056C00011278701FF24EE248E299F29A02BB12BBF
:1056D000BB24CC24DD248A299B29AC29BD29282B75
:1056E000392B4A2B5B2B8091160290911702A091C7
:1056F0001802B0911902281739074A075B0709F009
:10570000EBC0988980911A02891709F0E5C0898950
:105710009927E82FE695E695E695FF27E957FB4F91
:10572000208133278770907002C0359527958A9520
:10573000E2F720FFD1C09091AA02923008F0CCC0CD
:105740008091610398278CE1989FF0011124E35325
:10575000FA4FD2010D9001928150E1F78091AA0297
:105760008F5F8093AA02813009F0B6C0F301878170
:105770008093EA020E94670DAFC08C852D85992722
:10578000F82FEE273327E22BF32B2E857F85988980
:10579000C9883EEDE030F30721F066247724430109
:1057A00008C060902D0270902E0280902F02909081
:1057B000300280918302882309F48EC06D50892FB6
:1057C0009927AA27BB27EE24F82E092F1A2F332753
:1057D00044275527522F442733272227872F9927DD
:1057E000AA27BB27DC0199278827282B392B4A2B8E
:1057F0005B2B8C2D9927AA27BB27282B392B4A2BCB
:105800005B2BE22AF32A042B152B6114710481040B
:10581000910451F4E114F1040105110571F1E05016
:10582000FE4D09F059C019C0E114F104010511053C
:1058300029F4E050FE4D09F04FC016C0D801C70151
:1058400086199709A809B909181619061A061B0618
:105850007CF4E050FE4D09F03FC06650A80197016E
:10586000C20106960E94502580E00E94091A34C0A9
:10587000E614F7040805190549F4E050FE4D61F5FA
:1058800080913D028F5F80933D0226C0CF011DC0F5
:1058900080918302882301F18C852D859927982F8B
:1058A00088273327822B932B80509E4DA9F480911B
:1058B0002D0290912E02A0912F02B09130020097FC
:1058C000A105B10549F080E09EED0E94680F04C07B
:1058D0008FB7F89499278FBF9FB7F89480918A0269
:1058E000E82FFF27EE0FFF1FEB58FD4FD183C0833A
:1058F0008F5F80938A02833010F010928A02809129
:105900000105815080930105892F99278FBFD9CC3C
:105910000E94AD022FB7F894332770934103609330
:105920004003B1C28FB7F8949927109242051092A4
:10593000410510920606109205061092410210923F
:1059400040021092BB041092BA048FBFA0C22FB7BE
:10595000F894332780911C0480930E0282E0809398
:1059600024022FBF80910E02882309F090C2209A52
:10597000289A80910806882309F075C08EEF91E07F
:10598000019701960197E1F716982F9886E090E02D
:10599000019701960197E1F7169A289883EC8EBD3E
:1059A0000DB407FEFDCF8EB51EBC0DB407FEFDCFB6
:1059B0008EB5289A289882EC8EBD0DB407FEFDCFD7
:1059C0008EB588E08EBD0DB407FEFDCF8EB5289A4A
:1059D0008EEF91E0019701960197E1F728988EEC00
:1059E0008EBD0DB407FEFDCF8EB58DE48EBD0DB41A
:1059F00007FEFDCF8EB5289A289889EC8EBD0DB490
:105A000007FEFDCF8EB587EC8EBD0DB407FEFDCF32
:105A10008EB5289A289885EC8EBD0DB407FEFDCF73
:105A20008EB580E88EBD0DB407FEFDCF8EB5289AE9
:105A3000109253048BE080934203289888EC8EBD2B
:105A40000DB407FEFDCF8EB58BE68EBD0DB407FEFF
:105A5000FDCF8EB5289A2F9A81E08093080680E0CA
:105A60000E943A0514C20E947C1611C281E0F82EF1
:105A700000E010E0CFEED4E09091C8058F2D89238F
:105A800069F068817981198218828F2D8095982319
:105A90009093C80543E0802F0E94DB260F5F1F4FC5
:105AA00022960830110509F4F2C1FF0CE5CF1091E0
:105AB0000F02E12FFF27EE0FFF1FE151FB4FE080A8
:105AC000F180118210820E94B40E41E0B701812F53
:105AD0000E94DB26DCC11092310280916503992778
